:020000040800F2
:10000000E0B8012401040008030400080304000808
:1000100003040008030400080304000803040008A4
:100020000304000803040008030400080304000894
:10003000030400080304000803040008610E01081B
:100040000304000803040008030400080304000874
:100050000304000803040008C1290008412A00081D
:10006000D12A0008612B0008F12B0008B1DF00083D
:10007000C1DF0008D1DF0008E1DF0008F1DF000880
:1000800001E0000811E0000821E00008414E0008EE
:10009000914E00080304000803040008030400084C
:1000A00071100108614C00088110010891100108CD
:1000B000014D0008A14D0008F14D0008030400089F
:1000C00003040008030400080304000861F50008A5
:1000D00071F50008B18500086186000811870008E5
:1000E000812C0008112F000803040008A11001084A
:1000F000B14C0008B1100108C1100108514D0008B1
:10010000E14E0008314F00081116010881F5000882
:1001100091F5000803040008030400080304000824
:1001200031E0000841E0000851E0000861E000080B
:1001300071E0000881E0000891E00008A1E00008FB
:10014000030400080304000803040008C10B0108AD
:10015000E10B0108010C0108210C0108410C010808
:10016000610C0108810C0108910C010803040008CE
:100170000304000803040008030400080304000843
:100180000304000803040008030400080304000833
:10019000D1EF0008F1EF000811F0000821F000088D
:1001A00041F0000861F0000871F0000891F00008CB
:1001B000B1F00008C1F00008E1F0000801F100080A
:1001C000A1E1000803040008030400080304000878
:1001D00003040008030400080304000803040008E3
:1001E000B10C0108D10C0108F10C0108110D010836
:1001F000310D0108510D0108710D0108810D010833
:1002000003040008030400080304000803040008B2
:1002100003040008030400080304000803040008A2
:100220000304000803040008030400080304000892
:100230000304000803040008030400080304000882
:100240000304000803040008030400080304000872
:100250000304000803040008030400080304000862
:1002600003040008A1E60008B1E60008C1E60008A2
:10027000D1E60008E1E600080304000803040008D2
:100280000304000803040008030400080304000832
:100290000304000803040008030400080304000822
:1002A0000304000803040008030400080304000812
:1002B0000304000803040008030400080304000802
:1002C00003040008030400080304000803040008F2
:1002D00003040008030400080304000803040008E2
:1002E00003040008030400080304000803040008D2
:1002F00003040008030400080304000803040008C2
:1003000000000000000000000000000000000000ED
:1003100000000000000000000000000000000000DD
:1003200000000000000000000000000000000000CD
:1003300000000000000000000000000000000000BD
:1003400000000000000000000000000000000000AD
:10035000000000000000000000000000000000009D
:10036000000000000000000000000000000000008D
:10037000000000000000000000000000000000007D
:10038000000000000000000000000000000000006D
:10039000000000000000000000000000000000005D
:1003A000000000000000000000000000000000004D
:1003B000000000000000000000000000000000003D
:1003C000000000000000000000000000000000002D
:1003D000000000000000000000000000000000001D
:1003E000000000000000000000000000000000000D
:1003F00000000000000000000000000000000000FD
:080400001EE000F000F8FEE729
:1004400000200021444A454BE2E802019A42FBDBCE
:100450004349444A00240025E1E802459142FBDB80
:10046000414A002A08D041483D498B18F0E802452E
:10047000E1E802459942F9DB00203D493D4A086028
:1004800048608860C860086148618861C86120313F
:100490009142F4DB384A002A08D0384834498B1896
:1004A00004680C60043004319942F9DB72B63448B8
:1004B00080F30888334880F309883348334908605B
:1004C00040F20000CCF200004EF63471CEF2000192
:1004D0000860BFF34F8FBFF36F8F40F20000C0F290
:1004E000F0004EF68851CEF200010860BFF34F8F46
:1004F000BFF36F8F0020E1EE100A4EF63C71CEF292
:1005000000010860062080F31488BFF36F8F0DF0A0
:10051000F7FA0DF01DFB1E491E4A1F4B9A4204DAE2
:100520000868106004310432F8E70DF019FB1B4C29
:100530001B4DAC4203DA216888470434F9E700F028
:10054000A7FB184C184DAC4203DA216888470434E5
:10055000F9E71649084700000000002400000224C3
:1005600000000000008000001C000000F0DD010819
:100570000000002000000120000000000CDE010847
:10058000E0B80124E0C801240100000808ED00E003
:100590000CDE010800000024840E0024080400087A
:1005A00008040008080400080804000871DB0008BB
:1005B0007BB972B90029BEBF00204FF0004106E0B0
:1005C00008BF00281CBF6FF000414FF0FF3000F063
:1005D000BFB9ADF1080C6DE904CE002909DB002B91
:1005E0001ADB00F04DF8DDF804E0DDE9022304B089
:1005F0007047404261EB4101002B1BDB00F040F8EB
:10060000DDF804E0DDE9022304B0404261EB410182
:10061000524263EB43037047524263EB430300F0E3
:100620002FF8DDF804E0DDE9022304B0404261EB7D
:1006300041017047524263EB430300F021F8DDF8BB
:1006400004E0DDE9022304B0524263EB4303704748
:1006500053B94AB9002908BF00281CBF4FF0FF3129
:100660004FF0FF3000F074B9ADF1080C6DE904CE25
:1006700000F006F8DDF804E0DDE9022304B070477D
:100680002DE9F047089D04468E46002B4DD18A4245
:10069000944669D9B2FA82F252B101FA02F3C2F178
:1006A000200120FA01F10CFA02FC41EA030E944009
:1006B0004FEA1C48210CBEFBF8F61FFA8CF708FB2A
:1006C00016E341EA034306FB07F199420AD91CEB02
:1006D000030306F1FF3080F01F81994240F21C8134
:1006E000023E63445B1AA4B2B3FBF8F008FB10337C
:1006F00044EA034400FB07F7A7420AD91CEB0404B1
:1007000000F1FF3380F00A81A74240F20781644480
:10071000023840EA0640E41B00261DB1D440002305
:10072000C5E900433146BDE8F0878B4209D9002D69
:1007300000F0EF800026C5E9000130463146BDE8F3
:10074000F087B3FA83F6002E4AD18B4202D382425D
:1007500000F2F980841A61EB030301209E46002D0C
:10076000E0D0C5E9004EDDE702B9FFDEB2FA82F261
:10077000002A40F09280A1EB0C014FEA1C471FFABF
:100780008CFE0126200CB1FBF7F307FB131140EAA6
:1007900001410EFB03F0884208D91CEB010103F173
:1007A000FF3802D2884200F2CB804346091AA4B235
:1007B000B1FBF7F007FB101144EA01440EFB00FE09
:1007C000A64508D91CEB040400F1FF3102D2A6456E
:1007D00000F2BB800846A4EB0E0440EA03409CE70D
:1007E000C6F12007B34022FA07FC4CEA030C20FABA
:1007F00007F401FA06F31C43F9404FEA1C4900FADA
:1008000006F3B1FBF9F8200C1FFA8CFE09FB181156
:1008100040EA014108FB0EF0884202FA06F20BD9C9
:100820001CEB010108F1FF3A80F08880884240F219
:100830008580A8F102086144091AA4B2B1FBF9F05D
:1008400009FB101144EA014100FB0EFE8E4508D958
:100850001CEB010100F1FF346CD28E456AD90238DD
:10086000614440EA0840A0FB0294A1EB0E01A142C2
:10087000C846A64656D353D05DB1B3EB080261EB30
:100880000E0101FA07F722FA06F3F1401F43C5E90A
:10089000007100263146BDE8F087C2F12003D84040
:1008A0000CFA02FC21FA03F3914001434FEA1C4782
:1008B0001FFA8CFEB3FBF7F007FB10360B0C43EA74
:1008C000064300FB0EF69E4204FA02F408D91CEB24
:1008D000030300F1FF382FD29E422DD90238634422
:1008E0009B1B89B2B3FBF7F607FB163341EA0341C2
:1008F00006FB0EF38B4208D91CEB010106F1FF3811
:1009000016D28B4214D9023E6144C91A46EA004607
:1009100038E72E46284605E70646E3E61846F8E699
:100920004B45A9D2B9EB020864EB0C0E0138A3E7E2
:100930004646EAE7204694E74046D1E7D0467BE7C3
:10094000023B614432E7304609E76444023842E73B
:10095000704700BF00000000000000000000000021
:10096000844641EA000313F003036DD1403A41D3BA
:1009700051F8043B40F8043B51F8043B40F8043B79
:1009800051F8043B40F8043B51F8043B40F8043B69
:1009900051F8043B40F8043B51F8043B40F8043B59
:1009A00051F8043B40F8043B51F8043B40F8043B49
:1009B00051F8043B40F8043B51F8043B40F8043B39
:1009C00051F8043B40F8043B51F8043B40F8043B29
:1009D00051F8043B40F8043B51F8043B40F8043B19
:1009E00051F8043B40F8043B51F8043B40F8043B09
:1009F000403ABDD2303211D351F8043B40F8043BA9
:100A000051F8043B40F8043B51F8043B40F8043BE8
:100A100051F8043B40F8043B103AEDD20C3205D3B8
:100A200051F8043B40F8043B043AF9D2043208D0B0
:100A3000D2071CBF11F8013B00F8013B01D30B8822
:100A400003806046704700BF082A13D38B078DD000
:100A500010F003038AD0C3F10403D21ADB071CBFD2
:100A600011F8013B00F8013B80D331F8023B20F83C
:100A7000023B7BE7043AD9D3013A11F8013B00F875
:100A8000013BF9D20B7803704B7843708B788370FD
:100A900060467047000000000000000000000000F9
:100AA00090F800F06DE9024520F007016FF0000CAE
:100AB00010F0070491F820F040F049804FF0000456
:100AC0006FF00700D1E9002391F840F000F1080031
:100AD00082FA4CF2A4FA8CF283FA4CF3A2FA8CF369
:100AE0004BBBD1E9022382FA4CF200F10800A4FAD0
:100AF0008CF283FA4CF3A2FA8CF3E3B9D1E9042324
:100B000082FA4CF200F10800A4FA8CF283FA4CF35A
:100B1000A2FA8CF37BB9D1E9062301F1200182FA14
:100B20004CF200F10800A4FA8CF283FA4CF3A2FA1A
:100B30008CF3002BC6D0002A04BF04301A4612BA28
:100B4000B2FA82F2FDE8024500EBD2007047D1E92B
:100B5000002304F00305C4F100004FEAC50514F0BA
:100B6000040F91F840F00CFA05F562EA05021CBF8B
:100B700063EA050362464FF00004A9E700000000A5
:100B800001F0FF01102A2BDB10F0070F08D010F83E
:100B9000013B013A8B422DD010F0070F42B3F6D142
:100BA000F0B441EA012141EA014122F007047FF05B
:100BB00000070023F0E80256083C85EA010586EAB2
:100BC000010685FA47F5A3FA87F586FA47F6A5FAEE
:100BD00087F68EB9EED1F0BC01F0FF0102F00702FA
:100BE00032B110F8013B013A83EA010313B1F8D1A5
:100BF0000020704701387047002D06BF3546033886
:100C0000073815F0010F07D1013015F4807F02BFBE
:100C1000013015F4C03F0130F0BC0138704700BF0F
:100C200000BF70470000000000000000000000004E
:100C300000B583B00346ADF80630BDF8063003F0CA
:100C40000103002B01D00CF09BFFBDF8063003F030
:100C50000203002B01D00DF053FBBDF8063003F06A
:100C60000403002B01D0FFF7DBFFBDF8063003F0D3
:100C70001003002B01D010F0DBFC00BF03B05DF8C7
:100C800004FB00BF000000000000000000000000A6
:100C900000B58DB0B04807F0C3F900F089FE4FF001
:100CA0000003059301238DF82F3000238DF81330B6
:100CB000AA4BDB88ADF810300BF062FC0CF088FE1C
:100CC0000BF086FC40F2EE21A5480BF029FD0BF05D
:100CD000BFFE0CF09DF90CF0BBF90BF0F9FEA1483A
:100CE0000CF016FADFEDA00A9FEDA00A9D480CF06B
:100CF0002FFA002009F0E4FF0CF05AFEA32003F0C5
:100D000067F800220221A32003F0A2F8A32003F039
:100D10005FF801221021A22003F09AF80023944AE0
:100D20004FF4FA71092004F0BBFA924B924A052164
:100D3000082004F0B5FA0023904A0A21002004F0AC
:100D4000AFFA0F21092004F063F90021082004F014
:100D50005FF90121002004F05BF94FF47A7001F093
:100D600077FD012001F074FD00200CF049FE0346E0
:100D70001A46834B1A70794BDB88ADF81030814BE3
:100D80001B68012B40F0D2810121822002F010FF6C
:100D90007D480CF03DF87D4B002200217C4809F095
:100DA00017FA7C4B10220021794809F011FA7A4B8E
:100DB00030220021764809F00BFA784B50220021AE
:100DC000734809F005FA764B70220021704809F04B
:100DD000FFF9744B902200216D4809F0F9F9724B2C
:100DE000B02200216A4809F0F3F99DF82F306F4ACC
:100DF000DB00134493ED007B062300930323B0EE46
:100E0000470B20223221624809F0EAFC9DF82F307E
:100E1000664A9633DB00134493ED007B0623009370
:100E20000323B0EE470B20229621594809F0D8FC45
:100E30005F4B93ED067B062300930323B0EE470B35
:100E400040223221524809F0CBFC594B93ED087BEC
:100E5000062300930323B0EE470B402296214C4813
:100E600009F0BEFC0623009303239DED060B6022D0
:100E70003221474809F0B4FC4E4BD3ED007AB7EE6F
:100E8000E77A062300930323B0EE470B802232213A
:100E90003F4809F0A5FC0623009303239DED080BB2
:100EA000A02232213A4809F09BFC9DF82F3007EE32
:100EB000903AB8EE677B062300930323B0EE470B0E
:100EC000C0223221324809F08BFC394B93ED067B6E
:100ED000374B93ED086B9DF82F30344ADB001344F9
:100EE00093ED005B9DF82F30304A9633DB001344BE
:100EF00093ED004BB0EE443BB0EE452BB0EE461BFD
:100F0000B0EE470B0AF0ECFE8DED080B294BD3ED4C
:100F1000007AB7EEE77A9DED086B36EE477B8DEDF4
:100F2000067B07E09DED067B9FED076B37EE467B6A
:100F30008DED067B9DED067B9FED056BB4EEC67BCC
:100F4000F1EE10FAEEDA3FE000000000008076409B
:100F5000000000000080664000A3E111AC510124B4
:100F600000410100940E00240000C8420000C8C2E5
:100F7000B1C50008880E0024C11100084113000803
:100F8000C80E0024A45B0124B80E0024A0AD010803
:100F900090040024ACAD0108BCAD0108CCAD010843
:100FA000D8AD0108E8AD0108F8AD010820520124D0
:100FB000484F0124A85B01249DED067B9FED726BD9
:100FC00037EE067B8DED067B9DED067B9FED706B0E
:100FD000B4EEC67BF1EE10FAEED49DED067BF7EE93
:100FE000C77BF1EE677A6C4BC3ED037A6B4B93EDE5
:100FF000067B6A4B93ED086B9DF82F30684ADB0047
:10100000134493ED005B9DF82F30654A9633DB0067
:10101000134493ED004BB0EE443BB0EE452BB0EEE5
:10102000461BB0EE470B0AF073FD8DED020B5D4BD6
:10103000D3ED027AB0EE670A57480CF099F88DEDBF
:10104000050A9DED050A0BF083FC9DF82F30012B5E
:101050000DD99DF82F30072B09D8BDF81030B3F506
:10106000E06F04D040F634000BF0D2FA35E09DF882
:101070002F300B2B0DD99DF82F300F2B09D8BDF831
:101080001030B3F5E06F04D04FF4FA600BF0C0FA03
:1010900023E09DF82F30072B0DD99DF82F300A2B18
:1010A00009D8BDF81030B3F5E06F04D040F6340035
:1010B0000BF0AEFA11E0BDF81030B3F5E06F04D0DC
:1010C00040F6AC500BF0A4FA07E0BDF81030B3F5D1
:1010D000E06F02D100200BF09BFA9DED027BB7EE92
:1010E000006BB4EEC67BF1EE10FA4CD59DF82F30B4
:1010F000002B05D12C4B00221A6000200BF088FA3F
:101100009DF82F3001338DF82F309DF82F30244A71
:10111000DB00134493ED007BB5EE407BF1EE10FA5B
:101120007FF41FAE00238DF82F301AE61E4B1B688C
:10113000002B7FF416AE0BF0ABFC1C4B1B681B881E
:1011400018460BF0BDFB194B1B6802331B88184671
:101150000BF07EFA164B00224621164809F038F8AB
:101160000CF0AEFA03468DF81330BDF81030B3F52D
:10117000E06F04D10021A22002F01AFDF1E5012167
:10118000A22002F015FDECE5000000000080764092
:1011900000000000008066C0940E0024484F012427
:1011A00020520124B80E0024A45B01240000002476
:1011B00004AE0108900400240000000000000000BC
:1011C00000B58BB001900091009B0993099808F03D
:1011D00037FD099B0633184608F062FD4F4B1B781C
:1011E000002B2CD0099B0633B3F900309AB24C4B3C
:1011F000B3F900309BB2D31A9AB2099B063312B2EC
:101200001A80099B0633B3F902309AB2454BB3F901
:1012100000309BB2D31A9AB2099B063312B25A809D
:10122000099B0633B3F904309AB23F4BB3F900304F
:101230009BB2D31A9AB2099B063312B29A80099BC9
:101240000633B3F90030394A82FB03129210DB17E0
:10125000D31A1BB29BB21A46920013445B009AB297
:10126000099B063312B21A80099B0633B3F9023088
:101270002F4A82FB03125211DB17D31A1BB29BB207
:101280001A46920013441A4691001A460B4613441C
:101290009B009AB2099B063312B25A80099B06330F
:1012A000B3F90430214A82FB03129210DB17D31AE0
:1012B0001BB29BB21A46920013445B009AB2099B80
:1012C000063312B29A8006AB1A460421009808F041
:1012D0004FFB009B063303AA0621184608F0F8FBD3
:1012E000DDED067A9DED077ADDED086A9DED036A76
:1012F000DDED045A9DED055AF0EE452AB0EE652A63
:10130000F0EE461AB0EE661AF0EE470AB0EE670A43
:101310000BF006FC00BF0BB05DF804FBC90E002407
:10132000145201241652012418520124676666667D
:101330001F85EB51000000000000000000000000CD
:1013400000B583B0019000910AF082FD00BF03B0A8
:101350005DF804FB00000000000000000000000039
:1013600000B585B0039002910192019900230022FB
:10137000029807F04DFA019B184605B05DF804FB92
:1013800000B585B001900E4B1B6803930C4B1A6897
:10139000019B13440B4A934207D911F089FF03467E
:1013A0000C221A604FF0FF3306E0054B1A68019BD0
:1013B0001344034A1360039B184605B05DF804FB11
:1013C00018000024000002240000000000000000BB
:1013D00000BF704700000000000000000000000097
:1013E00082B00023019300230093002301930CE0BB
:1013F0000023009302E0009B01330093009BB3F5B0
:10140000803FF8D3019B01330193019BFF2BEFD960
:1014100000BF00BF02B070470000000000000000E5
:1014200010B5DAB05AACA4F5AA7420605AA8A0F599
:10143000AC7001605AA9A1F5AE710A605AAAA2F572
:10144000B0721360002359930023ADF8623100237A
:10145000ADF860315AABA3F5AC731868FFF720FB09
:1014600003461BB2ADF85E310023ADF85C310023BA
:10147000ADF85A319D4B1B78032B40F0C1819B4B3B
:101480001B699A4A926810469847984BDC68974BBC
:101490009868BDF85A311AB293B201339BB21BB2AD
:1014A000ADF85A3192B25AABA3F5AA731B6800216A
:1014B000A0475AABA3F5AC731B6859935AABA3F57D
:1014C000AC731868FFF7ECFA03461BB2ADF85E3157
:1014D000864B5B881A46854B9B7992FBF3F31BB2D4
:1014E000ADF85C3100BF599B5A1C599293F90030FA
:1014F000002BF8D10023ADF860311CE0599B013B73
:101500005993599B93F900302F2B04D0599B93F991
:1015100000305C2B06D1BDF860319BB201339BB229
:10152000ADF86031BDF85E311BB29BB2013B9BB29E
:101530001BB2ADF85E31BDF860319BB2012B04D80F
:10154000BDF85E311BB2002BD8DABDF85E311BB29C
:10155000002B09DB599B0133599316AB599A644907
:10156000184611F075FF11E0BDF860319BB2002BF9
:1015700006D116AB599A5F49184611F069FF05E08C
:1015800016AB599A5A49184611F062FF0023ADF87C
:1015900062316BE00023ADF8603135E016AB1846E0
:1015A000FFF77EFA03469BB21A46BDF860319BB244
:1015B0001946BDF862319BB2BDF85C0100B200FB78
:1015C00003F30B449A4229DBBDF860319BB21A4603
:1015D000BDF862319BB2BDF85C1109B201FB03F3A7
:1015E0001344BDF8602192B211465AAAA2F588723E
:1015F000D2565AABA3F5A8735A54BDF860319BB2CA
:1016000001339BB2ADF86031BDF860319BB21A4630
:10161000BDF85C311BB29A42C0DB00E000BFBDF8F0
:1016200060319BB21A465AABA3F5A87300219954B6
:101630002E4BDC682D4B98682C4BDB799AB2BDF8A9
:101640005A3119B28BB201339BB21BB2ADF85A3189
:101650008BB212FB03F39AB206AB0021A047BDF890
:1016600062319BB201339BB2ADF86231BDF8623199
:101670009BB21C4616AB1846FFF712FA0346BDF89C
:101680005C2112B2B3FBF2F301339C4282D35AAB1A
:10169000A3F5AE7316A81A68174911F0D9FE134BBB
:1016A000DC68124B9868114BDB799AB2BDF85A315D
:1016B00019B28BB201339BB21BB2ADF85A318BB267
:1016C00012FB03F39AB216AB0021A0475AABA3F565
:1016D000B0731B68002B00F0CA800023ADF86231A4
:1016E00079E00023ADF8603143E000BFCC0E002468
:1016F00020AE01082CAE01083CAE01085AABA3F5A0
:10170000B0731868FFF7CCF903469BB21A46BDF8D0
:1017100060319BB21946BDF862319BB2BDF85C01E5
:1017200000B200FB03F30B449A422CDBBDF860319E
:101730009BB21A46BDF862319BB2BDF85C1109B28A
:1017400001FB03F313441A465AABA3F5B0731B68AD
:101750001344BDF8602192B293F900105AABA3F57F
:10176000A8739954BDF860319BB201339BB2ADF8B8
:101770006031BDF860319BB21A46BDF85C311BB2D6
:101780009A42BBDB00E000BFBDF860319BB21A4655
:101790005AABA3F5A87300219954364BDC68354B3E
:1017A0009868344BDB799AB2BDF85A3119B28BB2D2
:1017B00001339BB21BB2ADF85A318BB212FB03F36B
:1017C0009AB206AB0021A047BDF862319BB201334B
:1017D0009BB2ADF86231BDF862319BB21C465AAB88
:1017E000A3F5B0731868FFF75BF90346BDF85C21F9
:1017F00012B2B3FBF2F301339C42FFF472AF36E056
:1018000016AB4FF480720021184611F059FD194BA8
:10181000DB685AAAA2F5AA72106898475AABA3F5DA
:10182000B0731B68002B11D05AABA3F5AE735AAA44
:10183000A2F5AC7216A85AA9A1F5B0710968009179
:101840001B6812680C4911F003FE0BE05AABA3F5BC
:10185000AE735AAAA2F5AC7216A81B6812680749A3
:1018600011F0F6FD034BDB6816AA1046984700BF3F
:101870005AB010BDCC0E002448AE010864AE010879
:1018800000B585B00292019303468DF80F300B46E8
:101890008DF80E309DF80E30002B24D19DF80F30BE
:1018A000012B19D0022B20D1164B1B78002B00D016
:1018B000FEE7144B1B780133DAB2124B1A7003F0B7
:1018C00057F9FFF785FD029B069A01990E48FFF72D
:1018D000A7FDFFF785FDF6E7029B069A01990B48E5
:1018E000FFF79EFD02E000BF00E000BF9DF80E3054
:1018F000002B0CBF01230023DBB2184605B05DF8B6
:1019000004FB00BF200F00247CAE01088CAE010850
:1019100000B583B0019000916A4601230199044803
:1019200000F0BEFA009B184603B05DF804FB00BF50
:10193000040000240000000000000000000000007F
:1019400084B00390084611461A460346ADF80A30A3
:101950000B46ADF8083013468DF80730039B002B7B
:101960001CD0104A039B93600E4B03221A700D4A41
:10197000BDF80A3053800B4ABDF808309380094AFD
:101980009DF807309371074A9DF81030D371054ACE
:10199000059BD360034A069B136100E000BF00BFB4
:1019A00004B07047CC0E00240000000000000000CE
:1019B00008B5094B01221A70074B084ADA60402328
:1019C000074A0121074800F0A3FB064A06490248DE
:1019D00006F03EFF00BF08BDCC0E0024F1870008D2
:1019E000E00E002404000024C1870008000000006D
:1019F00082B00190019B002B0CD0019B5B7C03F01B
:101A00000103DBB2002B07D0019A537C43F0100393
:101A1000537402E000BF00E000BF00BF02B0704797
:101A20002DE9F04F89B003904FF000024FF0000312
:101A3000CDE90623039B002B57D0039B5B7C03F06F
:101A40000103DBB2002B52D0039B5B7C03F010033D
:101A5000DBB2002B4DD1039B5A68039B1B68D31A42
:101A60000593039B5B7CC3F3C003DBB28DF813309B
:101A7000039A537C43F008035374039B5B7C03F08D
:101A80002003DBB2002B06D0059B00229A4693462A
:101A9000CDE906AB1EE0039B9A68039BDB68D31A73
:101AA000002298469146CDE90689059B00221C46F6
:101AB0001546DDE90623A61845EB0307059B002222
:101AC00000930192DDE9002330463946FEF770FDB0
:101AD000CDE906239DF8133003F00103D9B2039A30
:101AE000537C61F3C303537404E000BF02E000BF02
:101AF00000E000BF069B184609B0BDE8F08F00BFAC
:101B000000B587B00190009101238DF81730019B3B
:101B1000002B03D102238DF8173081E0019B5B7C01
:101B200003F00103DBB2002B03D103238DF8173040
:101B300076E0019B5B7C03F00803DBB2002B03D053
:101B400004238DF817306BE0019B5B7C03F00203EC
:101B5000DBB2002B03D005238DF8173060E0019A2B
:101B6000537C43F002035374019B5B7C03F010032E
:101B7000DBB2002B11D0019B1A68019B9A60019B7C
:101B80001A68019BDA60019A537C6FF34513537412
:101B9000019A537C6FF304135374019B5B7C03F035
:101BA0002003DBB2002B08D006238DF81730019AF2
:101BB000537C6FF34103537432E0019B9B680493A1
:101BC000019BDB6803930498019B1B7C1A466B46C0
:101BD0001946FEF7C5FE019B1B7C1A46049B134465
:101BE0000493019B5B68049A9A4202D1019B1B6893
:101BF0000493049A039B9A420CBF01230023D9B299
:101C0000019A537C61F345135374019B049A9A60C3
:101C1000019A537C6FF34103537400238DF81730FE
:101C20009DF81730184607B05DF804FB000000006F
:101C300000B58BB003900291019201238DF82730FB
:101C4000039B002B09D0029B002B06D0019B002B8D
:101C500003D0019B1B68002B03D102238DF8273092
:101C600013E1019B1B680893019B00221A60039BF0
:101C70005B7C03F00103DBB2002B03D103238DF85F
:101C8000273002E1039B5B7C03F00803DBB2002BEF
:101C900003D004238DF82730F7E0039B5B7C03F02F
:101CA0000203DBB2002B03D005238DF82730ECE0D4
:101CB000039A537C43F002035374039B5B7C03F051
:101CC0001003DBB2002B11D0039B1A68039B9A60B0
:101CD000039B1A68039BDA60039A537C6FF34513E6
:101CE0005374039A537C6FF304135374039B5B7C0C
:101CF00003F02003DBB2002B08D006238DF8273039
:101D0000039A537C6FF341035374BEE0039B9B68BB
:101D10000793039BDB68059300230693059A079BB3
:101D20009A422BD9059A079BD31A0693039B1B7CD7
:101D30001A46069BB3FBF2F3089A9A4209D9039B11
:101D40001B7C1A46069BB3FBF2F3089307238DF81E
:101D500027300798039B1B7C1A46089B02FB03F362
:101D60001A460299FEF7FCFD039B1B7C1A46089B52
:101D700002FB03F3079A134407935DE0039B5A6841
:101D8000079BD31A0693039B1B7C1A46069BB3FB47
:101D9000F2F3089A9A4214D80798039B1B7C1A46C0
:101DA000089B02FB03F31A460299FEF7D9FD039B39
:101DB0001B7C1A46089B02FB03F3079A1344079304
:101DC0003AE0079B069A02991846FEF7C9FD029A67
:101DD000069B13440293039B1B7C1A46089B03FB40
:101DE00002F2069BD31A0693039B1B68059AD31A2B
:101DF000069A9A4214D9039B1A68059BD21A069B2D
:101E00001344039A127CB3FBF2F3089AD31A089393
:101E1000039B1B68059AD31A069307238DF8273076
:101E2000039B1B68069A02991846FEF799FD039BCF
:101E30001B68069A13440793039B5B68079A9A42B0
:101E400002D1039B1B680793079A059B9A420CBF1C
:101E500001230023D9B2039A537C61F345135374D1
:101E6000039B079A9A60039A537C6FF34103537460
:101E7000019B089A1A609DF82730012B02D09DF82B
:101E8000273000E000238DF827309DF827301846D2
:101E90000BB05DF804FB00BF000000000000000074
:101EA00000B58BB00390029101928DF803300123AD
:101EB0008DF82730039B002B06D0019B002B03D00D
:101EC000019B1B68002B03D102238DF8273012E100
:101ED000019B1B680893019B00221A60039B5B7C9B
:101EE00003F00103DBB2002B03D103238DF827306D
:101EF00001E1039B5B7C03F01003DBB2002B03D0FA
:101F00000A238DF82730F6E0039B5B7C03F008037F
:101F1000DBB2002B03D008238DF82730EBE0039BC6
:101F20005B7C03F00403DBB2002B03D009238DF8A4
:101F30002730E0E0039A537C43F004035374039B7F
:101F4000DB680793039B9B68059300230693079A1E
:101F5000059B9A420FD1039B5B7C03F02003DBB20D
:101F6000002B08D10A238DF82730039A537C6FF396
:101F700082035374BFE0079A059B9A422ED2059ABA
:101F8000079BD31A0693039B1B7C1A46069BB3FB45
:101F9000F2F3089A9A4209D9039B1B7C1A46069BC6
:101FA000B3FBF2F308930B238DF82730029B002B31
:101FB0000AD00799039B1B7C1A46089B02FB03F37C
:101FC0001A460298FEF7CCFC039B1B7C1A46089B22
:101FD00002FB03F3079A1344079366E0039B5A68D6
:101FE000079BD31A0693039B1B7C1A46069BB3FBE5
:101FF000F2F3089A9A4217D8029B002B0AD007994D
:10200000039B1B7C1A46089B02FB03F31A460298AB
:10201000FEF7A6FC039B1B7C1A46089B02FB03F3FE
:10202000079A1344079340E0029B002B05D0079BBF
:10203000069A19460298FEF793FC029A069B1344EF
:102040000293039B1B7C1A46089B03FB02F2069B30
:10205000D31A0693039B1B68059AD31A069A9A42D1
:1020600014D9039B1A68059BD21A069B1344039A42
:10207000127CB3FBF2F3089AD31A0893039B1B68F4
:10208000059AD31A06930B238DF82730029B002B59
:1020900006D0039B1B68069A19460298FEF760FC5F
:1020A000039B1B68069A134407939DF80330002B8B
:1020B0000FD0039B5B68079A9A4202D1039B1B686F
:1020C0000793039A537C6FF345135374039B079A4A
:1020D000DA60039A537C6FF382035374019B089A6E
:1020E0001A609DF82730012B02D09DF8273000E0C0
:1020F00000238DF827309DF8273018460BB05DF887
:1021000004FB00BF00000000000000000000000011
:1021100086B00390019200930B468DF80B3001239B
:102120008DF81730039B002B05D0019B002B02D0AC
:10213000009B002B03D102238DF817301DE0039B79
:102140003E225A74019A039B1A60039B1A68009BF3
:102150001A44039B5A60039B1A68039B9A60039B73
:102160001A68039BDA60039B9DF80B201A74039B8B
:1021700001225A7400238DF817309DF81730184645
:1021800006B07047000000000000000000000000E2
:1021900000B585B0039002910192094811F050F901
:1021A0000399084811F0E4F80299074811F0E0F8A3
:1021B000019B002BF1D00199044811F0D9F8ECE70C
:1021C000A0AE0108BCAE0108C8AE0108D8AE010837
:1021D00000B585B00190019B002B04D10022EB21BA
:1021E0002348FFF7D5FF00238DF80F30002302931B
:1021F000019B002B36D0019B93F900302D2B06D18B
:1022000001238DF80F30019B0133019318E0019BEE
:1022100093F900302B2B13D1019B013301930FE075
:10222000029A13469B0013445B001A46019B93F9E4
:102230000030DBB2303B13440293019B0133019326
:10224000019B93F900302F2B04DD019B93F90030A3
:10225000392BE5DD9DF80F30002B04D0029B5B424B
:10226000029300E000BF029B184605B05DF804FB36
:10227000E8AE0108000000000000000000000000BF
:1022800000B589B001900091019B002B05D100227F
:102290004FF4B4712548FFF77BFF00238DF81F3002
:1022A000019B002B3DD0009B002B1DD1019B3022B8
:1022B0001A7037E000991E4BA3FB0123DA0813467E
:1022C0009B0013445B00CA1A9DF81F30591C8DF8FF
:1022D0001F1052B220336B4403F8142C009B144A95
:1022E000A2FB0323DB080093009B002BE2D113E049
:1022F0009DF81F30013B20336B4413F9143CDBB2D3
:102300003033D9B2019B5A1C01924AB21A709DF81F
:102310001F30013B8DF81F309DF81F30002BE7D197
:1023200000E000BF00BF09B05DF804FBE8AE0108A3
:10233000CDCCCCCC0000000000000000000000006C
:1023400000B58BB00190019B002B05D1002240F21B
:1023500027215948FFF71CFF00238DF827304FF045
:1023600000024FF00003CDE906234FF000024FF0CA
:102370000003CDE904234FF00002504BCDE90223C6
:10238000019B002B00F08A80019B93F900302D2BDC
:1023900006D101238DF82730019B013301931EE004
:1023A000019B93F900302B2B19D1019B0133019331
:1023B00015E09DED067BB2EE046B27EE066B019BEC
:1023C00093F90030DBB2303B07EE903AB8EEE77B92
:1023D00036EE077B8DED067B019B01330193019B5C
:1023E00093F900302F2B04DD019B93F90030392B3A
:1023F000DFDD019B93F900302E2B3CD1019B013393
:1024000001931DE09DED047BB2EE046B27EE066B9D
:10241000019B93F90030DBB2303B07EE903AB8EE07
:10242000E77B36EE077B8DED047B9DED027BB2EE04
:10243000046B27EE067B8DED027B019B013301933C
:10244000019B93F900302F2B0DDD019B93F9003098
:10245000392B08DC9DED027B9FED156BB4EEC67B3E
:10246000F1EE10FACED49DED045B9DED026B85EE8E
:10247000067B8DED047B9DED066B9DED047B36EEBA
:10248000077B8DED067B9DF82730002B07D09DED57
:10249000067BB1EE477B8DED067B00E000BFDDE9FA
:1024A000062343EC172BB0EE470B0BB05DF804FB93
:1024B0000000000065CDCD41E8AE01080000F03F0E
:1024C00000B59DB003908DED000B0B468DF80B30E1
:1024D000039B002B05D1002240F267217C48FFF7C7
:1024E00057FE00231B9300231A939DF80B308DF8A1
:1024F0006730039B002B00F0E6809DED007BFDEE36
:10250000C77B17EE903A1B939DED007BB5EEC07B29
:10251000F1EE10FA05D5039B5A1C03922D221A7076
:1025200014E09DED007BB5EE407BF1EE10FA0DD18D
:10253000039B5A1C039230221A70039B5A1C03926D
:102540002E221A70039B30221A70BDE01B9B07EEEF
:10255000903AB8EEE77B9DED006B36EE477B8DED54
:10256000007B07E09DED007BB2EE046B27EE067B5F
:102570008DED007B9DF867305A1E8DF86720002B8B
:10258000F0D19DED007BFDEEC77B17EE903A1A93DC
:1025900000238DF867309DF867305A1C8DF867204E
:1025A00018461B994B4B83FB01239A10CB17D21A69
:1025B00013469B0013445B00CA1A830070336B44BC
:1025C00043F83C2C1B9B434A82FB03129210DB17FF
:1025D000D31A1B931B9B002BDDD117E09DF86730AE
:1025E000013B9B0070336B4453F83C3C002BB8BF5D
:1025F0005B42DBB23033D9B2039B5A1C03924AB21E
:102600001A709DF86730013B8DF867309DF8673090
:10261000002BE3D19DF80B30002B55D000238DF813
:102620006730039B5A1C03922E221A701A9B002BB0
:1026300027D1039B30221A7046E09DF867305A1C60
:102640008DF8672018461A99224B83FB01239A10B4
:10265000CB17D21A13469B0013445B00CA1A83009F
:1026600070336B4443F8602C1A9B1A4A82FB0312A6
:102670009210DB17D31A1A939DF80B30013B8DF89B
:102680000B309DF80B30002BD7D117E09DF8673049
:10269000013B9B0070336B4453F8603C002BB8BF88
:1026A0005B42DBB23033D9B2039B5A1C03924AB26D
:1026B0001A709DF86730013B8DF867309DF86730E0
:1026C000002BE3D100E000BF00BF1DB05DF804FBAC
:1026D000E8AE0108676666660000000000000000C2
:1026E00000B587B00190019B002B05D1002240F27C
:1026F000BD213A48FFF74CFD0198FEF7D1F905904E
:102700000023049300238DF80F3000238DF80E3042
:10271000019B002B5BD09DF80E30002B3DD0019B20
:1027200093F90030602B0CDD019B93F90030662B90
:1027300007DC019B93F90030DBB2573B8DF80F307B
:1027400022E0019B93F90030402B0CDD019B93F9B3
:102750000030462B07DC019B93F90030DBB2373B9E
:102760008DF80F3010E0019B93F900302F2B2FDDF7
:10277000019B93F90030392B2ADC019B93F900303F
:10278000DBB2303B8DF80F30049B1A019DF80F30FF
:1027900003F00F031343049310E0019B93F90030FF
:1027A000302B0BD1019B013393F90030782B05D1ED
:1027B000019B0133019301238DF80E30019B0133FE
:1027C0000193059B5A1E0592002BA1D100E000BF8A
:1027D000049B184607B05DF804FB00BFE8AE010893
:1027E00008B5174B5B68174A934227D0144B4FF438
:1027F00080321A60134A124B5A60124B03F5803331
:102800000F4A93600E4B0022DA600F4B00221A70C1
:102810000B4B1B681A4600210A4810F051FD094A6B
:102820004FF6F87313441A46054B1A61044B1B69A3
:10283000044A1A60024B1B69024A5A6000BF08BD75
:10284000240F00243C0F0024380F00240000000057
:1028500088B001900023079300230693002305937B
:10286000002304930023039353E0019B0A2B28BF0A
:102870000A230793079B019AD31A0193284B1B68DD
:102880005B6A0493264B1B685B6A0393049A039B61
:102890009A42F3D1079B4FF47A7203FB02F2049B36
:1028A00013440693069A13091E49A1FB0313DB097F
:1028B0004CF2503101FB03F3D31A0593184B1B68FC
:1028C0005B6A0493164B1B685B6A0393049A039B31
:1028D0009A42F3D1069B4CF24F32934209D9049BA2
:1028E00046F2A7129342E9D8049A059B9A42E5D989
:1028F0000FE0059A4CF250339B1A642B05D8049BC9
:1029000046F2A7129342D9D803E0049A059B9A4253
:10291000D4D9019B002BA8D100BF00BF08B07047DD
:102920007CA80124C55A7C0A0000000000000000B9
:1029300000B583B09523ADF806304CF24F33ADF8B7
:10294000043019480EF05CFC002117480EF068FCBA
:10295000002115480EF07CFC012113480EF090FC7C
:10296000002111480EF0A4FC00210F480EF0B8FC25
:1029700001210D480EF0CCFC02210B480EF0E0FCCA
:10298000BDF80630194608480EF002FDBDF80430C7
:10299000194605480EF0ECFC03480EF019FD00BF87
:1029A00003B05DF804FB00BF7CA801240000000018
:1029B00082B00190009100BF02B07047000000009B
:1029C00000B583B01C4B1B68D3F888201A4B1B68DA
:1029D00042F00102C3F88820174B9B8840F6FF7233
:1029E00093421FD000230193134B5B6A03F0030350
:1029F000032B0CD0032B0DD8012B02D0022B03D0BC
:102A000008E00123019305E00223019302E0032380
:102A1000019300BF094B1B68084A52681146019890
:102A2000984702E000200BF0C3FBBFF34F8F00BFBD
:102A300000BF03B05DF804FB9C0000241C000024D0
:102A400000B583B01D4B1B68D3F888201B4B1B6857
:102A500042F00202C3F88820184BDB8840F6FF7270
:102A6000934220D000230193144B5B6A9B0803F030
:102A70000303032B0CD0032B0DD8012B02D0022B08
:102A800003D008E00123019305E00223019302E053
:102A90000323019300BF0A4B9B68094AD268114681
:102AA0000198984702E001200BF082FBBFF34F8FA3
:102AB00000BF00BF03B05DF804FB00BF9C00002412
:102AC0001C000024000000000000000000000000C6
:102AD00000B583B01D4B1B68D3F888201B4B1B68C7
:102AE00042F00402C3F88820184B1B8940F6FF729D
:102AF000934220D000230193144B5B6A1B0903F01F
:102B00000303032B0CD0032B0DD8012B02D0022B77
:102B100003D008E00123019305E00223019302E0C2
:102B20000323019300BF0A4B1B69094A52691146EE
:102B30000198984702E002200BF03AFBBFF34F8F59
:102B400000BF00BF03B05DF804FB00BF9C00002481
:102B50001C00002400000000000000000000000035
:102B600000B583B01D4B1B68D3F888201B4B1B6836
:102B700042F00802C3F88820184B5B8940F6FF72C8
:102B8000934220D000230193144B5B6A9B0903F00E
:102B90000303032B0CD0032B0DD8012B02D0022BE7
:102BA00003D008E00123019305E00223019302E032
:102BB0000323019300BF0A4B9B69094AD26911465E
:102BC0000198984702E003200BF0F2FABFF34F8F11
:102BD00000BF00BF03B05DF804FB00BF9C000024F1
:102BE0001C000024000000000000000000000000A5
:102BF00000B583B01D4B1B68D3F888201B4B1B68A6
:102C000042F01002C3F88820184B9B8940F6FF72EF
:102C1000934220D000230193144B5B6A1B0A03F0FC
:102C20000303032B0CD0032B0DD8012B02D0022B56
:102C300003D008E00123019305E00223019302E0A1
:102C40000323019300BF0A4B1B6A094A526A1146CB
:102C50000198984702E004200BF0AAFABFF34F8FC7
:102C600000BF00BF03B05DF804FB00BF9C00002460
:102C70001C00002400000000000000000000000014
:102C800000B587B09E4BD3F8883003F02003002BAB
:102C900036D09C4B1B68D3F888209A4B1B6842F0B7
:102CA0002002C3F88820974BDB8940F6FF729342DD
:102CB00020D000230593934B5B6A9B0A03F0030328
:102CC000032B0CD0032B0DD8012B02D0022B03D0E9
:102CD00008E00123059305E00223059302E00323A6
:102CE000059300BF884B9B6A874AD26A11460598B4
:102CF000984702E005200BF05BFABFF34F8F00BF4F
:102D00007F4BD3F8883003F04003002B36D07D4B47
:102D10001B68D3F888207B4B1B6842F04002C3F845
:102D20008820784B1B8A40F6FF72934220D0002304
:102D30000493744B5B6A1B0B03F00303032B0CD04F
:102D4000032B0DD8012B02D0022B03D008E0012366
:102D5000049305E00223049302E00323049300BFDD
:102D6000694B1B6B684A526B11460498984702E006
:102D700005200BF01DFABFF34F8F00BF604BD3F857
:102D8000883003F08003002B36D05E4B1B68D3F8ED
:102D900088205C4B1B6842F08002C3F88820594BA6
:102DA0005B8A40F6FF72934220D000230393554B79
:102DB0005B6A9B0B03F00303032B0CD0032B0DD892
:102DC000012B02D0022B03D008E00123039305E07E
:102DD0000223039302E00323039300BF4A4B9B6B40
:102DE000494AD26B11460398984702E005200BF040
:102DF000DFF9BFF34F8F00BF414BD3F8883003F4A6
:102E00008073002B36D03F4B1B68D3F888203D4B96
:102E10001B6842F48072C3F888203A4B9B8A40F6C4
:102E2000FF72934220D000230293364B5B6A1B0C47
:102E300003F00303032B0CD0032B0DD8012B02D07E
:102E4000022B03D008E00123029305E00223029342
:102E500002E00323029300BF2B4B1B6C2A4A526CE7
:102E600011460298984702E005200BF0A1F9BFF344
:102E70004F8F00BF224BD3F8883003F40073002B30
:102E800036D0204B1B68D3F888201E4B1B6842F4B9
:102E90000072C3F888201B4BDB8A40F6FF72934216
:102EA00020D000230193174B5B6A9B0C03F00303B4
:102EB000032B0CD0032B0DD8012B02D0022B03D0F7
:102EC00008E00123019305E00223019302E00323BC
:102ED000019300BF0C4B9B6C0B4AD26C11460198BE
:102EE000984702E005200BF063F9BFF34F8F00BF56
:102EF000BFF34F8F00BF00BF07B05DF804FB00BFFA
:102F0000000400429C0000241C000024000000007B
:102F100000B587B0974BD3F8883003F48063002B5B
:102F200036D0954B1B68D3F88820934B1B6842F42E
:102F30008062C3F88820904B1B8B40F6FF7293424F
:102F400020D0002305938C4B5B6A1B0D03F0030319
:102F5000032B0CD0032B0DD8012B02D0022B03D056
:102F600008E00123059305E00223059302E0032313
:102F7000059300BF814B1B6D804A526D1146059829
:102F8000984702E006200BF013F9BFF34F8F00BF04
:102F9000784BD3F8883003F40063002B36D0764B9F
:102FA0001B68D3F88820744B1B6842F40062C3F896
:102FB0008820714B5B8B40F6FF72934220D0002338
:102FC00004936D4B5B6A9B0D03F00303032B0CD042
:102FD000032B0DD8012B02D0022B03D008E00123D4
:102FE000049305E00223049302E00323049300BF4B
:102FF000624B9B6D614AD26D11460498984702E07E
:1030000006200BF0D5F8BFF34F8F00BF594BD3F814
:10301000883003F48053002B36D0574B1B68D3F80D
:103020008820554B1B6842F48052C3F88820524BCD
:103030009B8B40F6FF72934220D0002303934E4BAC
:103040005B6A1B0E03F00303032B0CD0032B0DD87C
:10305000012B02D0022B03D008E00123039305E0EB
:103060000223039302E00323039300BF434B1B6E31
:10307000424A526E11460398984702E006200BF030
:1030800097F8BFF34F8F00BF3A4BD3F8883003F463
:103090000053002B36D0384B1B68D3F88820364BB2
:1030A0001B6842F40052C3F88820334BDB8B40F698
:1030B000FF72934220D0002302932F4B5B6A9B0E3A
:1030C00003F00303032B0CD0032B0DD8012B02D0EC
:1030D000022B03D008E00123029305E002230293B0
:1030E00002E00323029300BF244B9B6E234AD26E5F
:1030F00011460298984702E006200BF059F8BFF3FA
:103100004F8F00BF1B4BD3F8883003F48043002B54
:103110003CD0194B1B68D3F88820174B1B6842F42E
:103120008042C3F88820144B1B8C40F6FF729342F8
:1031300026D000230193104B5B6A1B0F03F003039F
:10314000032B0CD0032B0DD8012B02D0022B03D064
:1031500008E00123019305E00223019302E0032329
:10316000019300BF054B1B6F044A526F1146019833
:10317000984708E0000400429C0000241C00002442
:1031800006200BF015F8BFF34F8F00BF214BD3F88B
:10319000883003F40043002B34D01F4B1B68D3F856
:1031A00088201D4B1B6842F40042C3F888201A4B4C
:1031B0005B8C40F6FF7293421ED000230093164BA7
:1031C0005B6A9B0F032B0CD0032B0DD8012B02D075
:1031D000022B03D008E00123009305E002230093B3
:1031E00002E00323009300BF0C4B9B6F0B4AD26F8E
:1031F00011460098984702E006200AF0D9FFBFF375
:103200004F8F00BFBFF34F8F00BF00BF07B05DF807
:1032100004FB00BF000400429C0000241C000024AA
:1032200000B587B0059004910392049B0093059B21
:10323000039A00210220FEF723FBFEE700000000B6
:1032400000B58BB00390029101238DF82730039BCA
:10325000002B0BD0002250213548FFF7E1FF034639
:10326000002B03D003238DF827305BE0029B032B58
:103270000BD9002257212E48FFF7D2FF0346002B1F
:1032800003D004238DF827304CE00023079307ABCD
:103290001A46022127480CF083FB0346002B03D07B
:1032A00008238DF827303DE00022022121480CF050
:1032B0005FFB0346002B03D008238DF8273031E055
:1032C00007AB1A4602211B480CF06AFB0346002B91
:1032D00003D008238DF8273024E0079B03F00F0369
:1032E000002B03D008238DF827301BE0039B03F548
:1032F0000F639A00029B13449B03089306AA05AB35
:10330000009313464FF4804208990A480CF0F8FBEA
:103310000346002B03D002238DF8273002E0002360
:103320008DF827309DF8273018460BB05DF804FB68
:1033300030AF01087889012400000000000000007F
:1033400000B58FB00590049101238DF83730059BAF
:10335000002B0BD000229D212548FFF761FF03467B
:10336000002B03D003238DF837303BE0049B032B65
:103370000BD90022A4211E48FFF752FF0346002B61
:1033800003D004238DF837302CE000238DF837303C
:1033900004990598FFF754FF0346002B21D001F054
:1033A0000FFC0C9000230B9300230A930122049B33
:1033B00002FA03F30993002307930023089301AA59
:1033C00007AB93E8030082E80300099B00930A9B84
:1033D0000B9A002107480CF043FB0C9801F0D0FB3E
:1033E00000E000BF9DF8373018460FB05DF804FBD1
:1033F00030AF0108788901240000000000000000BF
:1034000000B587B0039002910192ADF8023001231C
:103410008DF81730039B002B0BD00022D7213348A7
:10342000FFF7FEFE0346002B03D003238DF8173071
:1034300055E0029B032B0BD90022DE212B48FFF71E
:10344000EFFE0346002B03D004238DF8173046E02F
:10345000BDF80230B3F5804F0BD90022E621234896
:10346000FFF7DEFE0346002B03D006238DF817304E
:1034700035E0019B002B0BD10022ED211B48FFF70B
:10348000CFFE0346002B03D005238DF8173026E02E
:103490000023ADF81430039B03F50F639A00029BE1
:1034A00013449B0304930023ADF814300EE0BDF8E1
:1034B0001420049B13441946019B1A1D01920A68AB
:1034C0001A60BDF814300433ADF81430BDF8142080
:1034D000BDF802309A42EAD300238DF817309DF8E8
:1034E0001730184607B05DF804FB00BF30AF010885
:1034F00000B58BB0059004910392ADF80A3001231A
:103500008DF82730059B002B0CD000224FF48B71D7
:103510003048FFF785FE0346002B03D003238DF8C8
:10352000273050E0049B032B0CD9002240F21D11E0
:103530002848FFF775FE0346002B03D004238DF8BF
:10354000273040E0BDF80A30B3F5804F0CD9002297
:1035500040F225111F48FFF763FE0346002B03D0FE
:1035600006238DF827302EE0039B002B0CD1002280
:103570004FF496711748FFF753FE0346002B03D014
:1035800005238DF827301EE001F01AFB08900499FE
:103590000598FFF7D5FE059B03F50F639A00049B82
:1035A00013449B030793BDF80A20039B0093134623
:1035B000079A002108480CF00BFA089801F0E0FA8D
:1035C00000238DF827309DF8273018460BB05DF8A2
:1035D00004FB00BF30AF010878890124000000001F
:1035E00000B583B0019000914FF48043044A0099E4
:1035F0000198FFF705FF0346184603B05DF804FB8A
:103600003C0F01240000000000000000000000004A
:1036100000B583B0019000914FF48043044A0099B3
:103620000198FFF765FF0346184603B05DF804FBF9
:103630003C0F01240000000000000000000000001A
:1036400008B54FF48042FF2102480FF039FE00BF59
:1036500008BD00BF3C0F0124000000000000000076
:1036600008B50CF06DF902480CF07AF900BF08BDFE
:103670007889012400000000000000000000000024
:1036800000B585B003460A46ADF8063013468DF8FE
:103690000530BDF806301B099BB28DF80F30BDF820
:1036A0000630DBB203F00F038DF80E309DF80F30BB
:1036B00018460AF045FE0290029B002B14D0029B94
:1036C0001A689DF80E305B00194603238B40DB43DC
:1036D0001A409DF8053003F003039DF80E104900D1
:1036E0008B401A43029B1A6000BF05B05DF804FBD3
:1036F00000B585B003460A46ADF8063013468DF88E
:103700000530BDF806301B099BB28DF80F30BDF8AF
:103710000630DBB203F00F038DF80E309DF80F304A
:1037200018460AF00DFE0290029B002B13D0029B5C
:103730005A689DF80E30012101FA03F3DB431A4069
:103740009DF8053003F001019DF80E3001FA03F3F6
:103750001A43029B5A6000BF05B05DF804FB00BF2E
:1037600000B585B003460A46ADF8063013468DF81D
:103770000530BDF806301B099BB28DF80F30BDF83F
:103780000630DBB203F00F038DF80E309DF80F30DA
:1037900018460AF0D5FD0290029B002B14D0029B24
:1037A0009A689DF80E305B00194603238B40DB437B
:1037B0001A409DF8053003F003039DF80E104900F0
:1037C0008B401A43029B9A6000BF05B05DF804FB72
:1037D00000B585B003460A46ADF8063013468DF8AD
:1037E0000530BDF806301B099BB28DF80F30BDF8CF
:1037F0000630DBB203F00F038DF80E309DF80F306A
:1038000018460AF09DFD0290029B002B14D0029BEB
:10381000DA689DF80E305B00194603238B40DB43CA
:103820001A409DF8053003F003039DF80E1049007F
:103830008B401A43029BDA6000BF05B05DF804FBC1
:1038400000B585B003460A46ADF8063013468DF83C
:103850000530BDF806301B099BB28DF80F30BDF85E
:103860000630DBB203F00F038DF80E309DF80F30F9
:1038700018460AF065FD0290029B002B30D09DF89F
:103880000E30072B15D8029B1A6A9DF80E309B004C
:1038900019460F238B40DB431A409DF8053003F097
:1038A0000F039DF80E1089008B401A43029B1A6289
:1038B00016E0029B5A6A9DF80E30083B9B001946A1
:1038C0000F238B40DB431A409DF8053003F00F03B4
:1038D0009DF80E10083989008B401A43029B5A62EA
:1038E00000BF05B05DF804FB000000000000000010
:1038F00000B585B003460A46ADF8063013468DF88C
:103900000530BDF806301B099BB28DF80F30BDF8AD
:103910000630DBB203F00F038DF80E309DF80F3048
:1039200018460AF00DFD0290029B002B14D0029B5A
:103930009A6A9DF80E305B00194603238B40DB43E7
:103940001A409DF8053003F003039DF80E1049005E
:103950008B401A43029B9A6200BF05B05DF804FBDE
:1039600000B585B003460A46ADF8063013468DF81B
:103970000530BDF806301B099BB28DF80F30BDF83D
:103980000630DBB203F00F038DF80E309DF80F30D8
:1039900018460AF0D5FC0290029B002B13D0029B24
:1039A000DA6A9DF80E30012101FA03F3DB431A4075
:1039B0009DF8053003F001019DF80E3001FA03F384
:1039C0001A43029BDA6200BF05B05DF804FB00BF3A
:1039D00000B585B003460A46ADF8063013468DF8AB
:1039E0000530BDF806301B099BB28DF80F30BDF8CD
:1039F0000630DBB203F00F038DF80E309DF80F3068
:103A000018460AF09DFC0290029B002B13D0029BEB
:103A10001A6B9DF80E30012101FA03F3DB431A40C3
:103A20009DF8053003F001019DF80E3001FA03F313
:103A30001A43029B1A6300BF05B05DF804FB00BF88
:103A400000B585B003460A46ADF8063013468DF83A
:103A50000530BDF806301B099BB28DF80F30BDF85C
:103A60000630DBB203F00F038DF80E309DF80F30F7
:103A700018460AF065FC0290029B002B13D0029BB3
:103A80005A6B9DF80E30012101FA03F3DB431A4013
:103A90009DF8053003F001019DF80E3001FA03F3A3
:103AA0001A43029B5A6300BF05B05DF804FB00BFD8
:103AB00000B583B003460091ADF80630009BDBB241
:103AC00003F00303DAB2BDF8063011461846FFF7DB
:103AD000D7FD009B9B0803F00103DAB2BDF8063066
:103AE00011461846FFF704FE009BDB0803F00303B2
:103AF000DAB2BDF8063011461846FFF731FE009BDA
:103B00005B0903F00303DAB2BDF80630114618462C
:103B1000FFF75EFE009BDB09DBB203F00F03DAB2B6
:103B2000BDF8063011461846FFF78AFE009BDB0AF7
:103B300003F00303DAB2BDF8063011461846FFF76A
:103B4000D7FE009B5B0B03F00103DAB2BDF8063031
:103B500011461846FFF704FF009B9B0B03F001037F
:103B6000DAB2BDF8063011461846FFF731FF009B68
:103B7000DB0B03F00103DAB2BDF80630114618463C
:103B8000FFF75EFF00BF03B05DF804FB000000001C
:103B900000B587B0059004910392049B0093059BA8
:103BA000039A00210220FDF76BFEFEE700000000F3
:103BB00000B585B003460A46ADF8063013468DF8C9
:103BC000053001238DF80F30BDF8063040F6FF7246
:103BD000934207D1002284212248FFF7D9FF0346F0
:103BE000002B38D1BDF806305B099BB28DF80E3042
:103BF000BDF80630DBB203F01F038DF80D309DF8E1
:103C00000530002B11D09DF80E30174A52F82330A2
:103C100099699DF80D3001229A409DF80E301248A6
:103C200050F823300A439A6111E09DF80E300E4A95
:103C300052F8233099699DF80D304FF480329A4044
:103C40009DF80E30084850F823300A439A6100234B
:103C50008DF80F3000E000BF9DF80F30184605B01A
:103C60005DF804FB60AF0108E0B30108000000004C
:103C700000B585B00346ADF8063000238DF80F304F
:103C8000BDF8063040F6FF72934207D10022A3210F
:103C90001648FFF77DFF0346002B20D1BDF8063004
:103CA0005B099BB28DF80E30BDF80630DBB203F035
:103CB0001F038DF80D309DF80E300D4A52F8233059
:103CC0001B699DF80D20012101FA02F21340002B1F
:103CD00014BF01230023DBB28DF80F3000E000BFDA
:103CE0009DF80F30184605B05DF804FB60AF010881
:103CF000E0B3010800000000000000000000000028
:103D000000B585B00346ADF8063001238DF80F30BD
:103D1000BDF8063040F6FF72934207D10022BF2162
:103D20002748FFF735FF0346002B42D1BDF8063088
:103D30005B099BB28DF80E30BDF80630DBB203F0A4
:103D40001F038DF80D309DF80E301E4A52F82330B7
:103D50001B699DF80D20012101FA02F21340002B8E
:103D600012D09DF80E30174A52F8233099699DF809
:103D70000D304FF480329A409DF80E30114850F8C3
:103D800023300A439A6110E09DF80E300D4A52F834
:103D9000233099699DF80D3001229A409DF80E302C
:103DA000084850F823300A439A6100238DF80F30F9
:103DB00000E000BF9DF80F30184605B05DF804FB29
:103DC00060AF0108E0B3010800000000000000003F
:103DD00000B585B00346ADF8063001238DF80F30ED
:103DE000BDF8063040F6FF72934207D10022FF2152
:103DF0001548FFF7CDFE0346002B1DD1BDF8063058
:103E00005B101BB203F4FE631AB2BDF9063003F077
:103E10001F031BB213431BB29BB242F23D01184673
:103E2000FFF746FEBDF8063001211846FFF7C0FE39
:103E300000238DF80F3000E000BF9DF80F301846CA
:103E400005B05DF804FB00BF60AF01080000000092
:103E500000B585B00346ADF806300B468DF8053049
:103E600013468DF8043001238DF80F30BDF806306D
:103E700040F6FF72934208D100224FF48F71304810
:103E8000FFF786FE0346002B52D19DF805301B0933
:103E9000DBB2002B19D0BDF806305B099BB2012BB9
:103EA00005D0BDF806305B099BB2022B0DD1BDF8E1
:103EB0000630212B09D0BDF80630452B05D0002255
:103EC00040F229111E48FFF763FE9DF8053003F00C
:103ED0000F029DF805301B09DBB29B001344194A01
:103EE00052F823300293BDF806305B101BB203F486
:103EF000FE631AB2BDF9063003F01F031BB2134371
:103F00001BB29BB202991846FFF7D2FD9DF805300F
:103F10001B09DBB2002B07D09DF80420BDF806304A
:103F200011461846FFF744FE00238DF80F3000E0DD
:103F300000BF9DF80F30184605B05DF804FB00BFC8
:103F400060AF0108C0B301080000000000000000DD
:103F500000B585B00346ADF806300B468DF8053048
:103F600013468DF8043001238DF80F30BDF806306C
:103F700040F6FF72934208D1002240F24D112C48C6
:103F8000FFF706FE0346002B4AD19DF805301B09BA
:103F9000DBB2002B19D0BDF806305B099BB2012BB8
:103FA00005D0BDF806305B099BB2022B0DD1BDF8E0
:103FB0000630212B09D0BDF80630452B05D0002254
:103FC0004FF4AC711A48FFF7E3FD9DF8053003F09C
:103FD0000F029DF805301B09DBB29B001344154A04
:103FE00052F8233002939DF80430DB01029A134308
:103FF0000293BDF806305B101BB203F4FE631AB2E5
:10400000BDF9063003F01F031BB213431BB29BB272
:1040100002991846FFF74CFD00238DF80F3000E0A1
:1040200000BF9DF80F30184605B05DF804FB00BFD7
:1040300060AF0108C0B301080000000000000000EC
:1040400000B587B0059004910392049B0093059BF3
:10405000039A00210220FDF713FCFEE70000000098
:1040600010B584B00190009101238DF80F30019BB1
:104070001B0CDBB203F00F038DF80E30019B1B0D00
:10408000DBB203F00F038DF80D309DF80E20974939
:104090001346DB009B1ADB000B4428331B68002B04
:1040A0000BD1002278219248FFF7CAFF0346002B6C
:1040B00003D021238DF80F3013E19DF80E209DF8D9
:1040C0000D108A481346DB009B1A9B000B445B00D3
:1040D00003449B8840F6FF7293420AD1002280215C
:1040E0008348FFF7ADFF0346002B02D023238DF852
:1040F0000F30009B42F2107293420BD900228521AF
:104100007B48FFF79DFF0346002B03D029238DF842
:104110000F30E6E09DF80E2074491346DB009B1A31
:10412000DB000B442C331B68ADF80A30009B42F2D5
:104130004762934238D9BDF80A305B089CB29DF8BB
:104140000E206A491346DB009B1ADB000B441868FB
:104150009DF80D20674BA3FB021399080B465B00EB
:104160000B445B00D31ADBB22246DB0103449C33D1
:104170001A609DF80E205D491346DB009B1ADB0098
:104180000B4418689DF80D205A4BA3FB02139908A5
:104190000B465B000B445B00D31ADBB2DB0103442C
:1041A000A43300221A6099E0009BC82B39D89DF8EF
:1041B0000E204E491346DB009B1ADB000B441868A7
:1041C0009DF80D204B4BA3FB021399080B465B0097
:1041D0000B445B00D31ADBB2BDF80A20DB010344B9
:1041E0009C331A60BDF80A305B089CB29DF80E2023
:1041F0003E491346DB009B1ADB000B4418689DF810
:104200000D203C4BA3FB021399080B465B000B44AB
:104210005B00D31ADBB22246DB010344A4331A60ED
:104220005CE0BDF80A305B089BB207EE903AB8EE4E
:10423000E77A009B07EE903AF8EE676A9FED2E6AE8
:10424000C6EE867A67EE277AFCEEE77A17EE903AAA
:10425000ADF80830BDF80A305B089BB21A46BDF8CD
:104260000830D41A9DF80E2020491346DB009B1A13
:10427000DB000B4418689DF80D201E4BA3FB0213B6
:1042800099080B465B000B445B00D31ADBB2224655
:10429000DB0103449C331A60BDF80A305B089BB213
:1042A0001A46BDF80830D4189DF80E200F49134661
:1042B000DB009B1ADB000B4418689DF80D200D4BAA
:1042C000A3FB021399080B465B000B445B00D31A57
:1042D000DBB22246DB010344A4331A6000238DF8CD
:1042E0000F309DF80F30184604B010BDC8000024F0
:1042F00090AF0108ABAAAAAA00401C46000000002B
:1043000010B584B00190009101238DF80F30019B0E
:104310001B0CDBB203F00F038DF80E30019B1B0D5D
:10432000DBB203F00F038DF80D309DF80E206849C5
:104330001346DB009B1ADB000B4428331B68002B61
:104340000CD1002240F217216248FFF779FE0346A4
:10435000002B03D021238DF80F30E7E19DF80E20CC
:104360005B491346DB009B1ADB000B4430331B8890
:10437000C3F30B039BB21A469DF80D3042FA03F3C8
:1043800003F00103002B0BD0002240F21F21514803
:10439000FFF756FE0346002B02D022238DF80F3084
:1043A000009B42F2107293420CD9002240F2262167
:1043B0004848FFF745FE0346002B03D029238DF81C
:1043C0000F30B3E19DF80E2041491346DB009B1AE4
:1043D000DB000B442C331B68ADF80A30009B42F223
:1043E0004762934238D9BDF80A305B089CB29DF809
:1043F0000E2037491346DB009B1ADB000B4418687C
:104400009DF80D20344BA3FB021399080B465B006B
:104410000B445B00D31ADBB22246DB0103449C331E
:104420001A609DF80E202A491346DB009B1ADB0018
:104430000B4418689DF80D20274BA3FB0213990825
:104440000B465B000B445B00D31ADBB2DB01034479
:10445000A43300221A60A0E0009BC82B40D89DF82E
:104460000E201B491346DB009B1ADB000B44186827
:104470009DF80D20184BA3FB021399080B465B0017
:104480000B445B00D31ADBB2DB0103449C330022F4
:104490001A60BDF80A305B089CB29DF80E200C49EA
:1044A0001346DB009B1ADB000B4418689DF80D20B7
:1044B000094BA3FB021399080B465B000B445B00FE
:1044C000D31ADBB22246DB010344A4331A6064E052
:1044D000C800002490AF0108ABAAAAAA00401C465D
:1044E000BDF80A305B089BB207EE903AB8EEE77A67
:1044F000009B07EE903AF8EE676A1FED086AC6EE79
:10450000867A67EE277AFCEEE77A17EE903AADF8F6
:104510000830BDF80A305B089BB21A46BDF8083077
:10452000D41A9DF80E2084491346DB009B1ADB0049
:104530000B4418689DF80D20804BA3FB02139908CB
:104540000B465B000B445B00D31ADBB22246DB0157
:1045500003449C331A60BDF80A305B089BB21A46CC
:10456000BDF80830D4189DF80E2073491346DB00BF
:104570009B1ADB000B4418689DF80D206F4BA3FBC2
:10458000021399080B465B000B445B00D31ADBB2A5
:104590002246DB010344A4331A609DF80E206649CD
:1045A0001346DB009B1ADB000B4430331B88C3F33C
:1045B0000B039BB21AB29DF80D30012101FA03F3EF
:1045C0001BB213431BB29DF80E20C3F30B0399B229
:1045D00059481346DB009B1ADB00034403F1300209
:1045E000138861F30B031380019B9BB29DF80E208F
:1045F0009DF80D10C3F30B039CB24F481346DB002C
:104600009B1A9B000B445B00034422469A80019B4B
:104610009BB2C3F30B0398B2019B1B0BDBB203F0FD
:104620000F03DBB21A461221FFF792FC9DF80E2011
:1046300041491346DB009B1ADB000B4418689DF8C8
:104640000D203E4BA3FB021399080B465B000B4465
:104650005B00D31ADCB22346DB010344BC33186889
:104660009DF80E2034491346DB009B1ADB000B44F7
:104670001968234640F00802DB010B44BC331A6082
:104680009DF80E202C491346DB009B1ADB000B44DF
:1046900018689DF80D20294BA3FB021399080B46BF
:1046A0005B000B445B00D31ADCB22346DB010344FE
:1046B000C03318689DF80E201F491346DB009B1A73
:1046C000DB000B441968234640F01002DB010B4469
:1046D000C0331A609DF80E2017491346DB009B1A61
:1046E000DB000B441B68D3F894039DF80D20134B9B
:1046F000A3FB021399080B465B000B445B00D31A23
:10470000DBB25B00012202FA03F31C469DF80E2087
:1047100009491346DB009B1ADB000B441B6840EA87
:104720000402C3F8942300238DF80F309DF80F3056
:10473000184604B010BD00BFC8000024ABAAAAAA46
:104740002DE9F04F8BB0034604918DF8173001230B
:104750008DF827309DF81720B7491346DB009B1AC8
:10476000DB000B4428331B68002B0CD0002240F2E6
:104770006121B248FFF764FC0346002B03D02023DD
:104780008DF8273051E1049B002B0CD100224FF40F
:104790001A71AA48FFF754FC0346002B03D02823C4
:1047A0008DF8273041E19DF81730A54A32F81330D3
:1047B000184601F0ADF99DF817209F491346DB001C
:1047C0009B1ADB000B441B680222C3F8CC239DF824
:1047D000172099491346DB009B1ADB000B4403F1B9
:1047E00030029378012161F3830393709DF81720C1
:1047F0009DF8173003F03F03D9B28F481346DB0012
:104800009B1ADB00034403F13002538861F3091360
:104810005380002306930023ADF824300023ADF825
:10482000223001238DF821308DE09DF81720824938
:104830001346DB009B1ADB000B442033D3E9000155
:104840009DF8213000221C46154622462B46FBF7D8
:10485000FFFE02460B4610461946049B00221E46E8
:10486000174632463B46FBF7F3FE02460B46B2F5CF
:104870007F4F73F100035CD29DF817206E491346F9
:10488000DB009B1ADB000B442033D3E900019DF8C9
:10489000213000229846914642464B46FBF7D8FE0F
:1048A00002460B4610461946049B00229A46934640
:1048B00052465B46FBF7CCFE02460B461346ADF86C
:1048C0002230BDF8223001339BB223F00103ADF852
:1048D00022309DF8172058491346DB009B1ADB0055
:1048E0000B442033D3E900019DF8213000220093CE
:1048F0000192DDE90023FBF7ABFE02460B461046B2
:104900001946BDF82230002202930392DDE902230A
:10491000FBF79EFE02460B46104619469DF81720EF
:1049200045491346DB009B1ADB000B442833186013
:104930000EE0BDF824300133ADF824309DF821306D
:104940005B008DF821309DF82130802B7FF66DAF14
:10495000BDF82230581E9DF8172037491346DB005A
:104960009B1ADB000B441B6802465A6100238DF83A
:10497000203017E0BDF82230581E9DF817202E4930
:104980001346DB009B1ADB000B441A689DF82030AD
:104990000146DB011344943319609DF82030013344
:1049A0008DF820309DF82030052BE3D99DF8172095
:1049B000BDF8221020481346DB009B1ADB0003449D
:1049C0002C331960BDF8243043F008039BB20693E2
:1049D00000238DF81F3014E09DF817201649134668
:1049E000DB009B1ADB000B441A689DF81F30013373
:1049F000DB011344069A1A609DF81F3001338DF8CD
:104A00001F309DF81F30052BE6D99DF817200A4965
:104A10001346DB009B1ADB000B441B68069A42F42A
:104A2000FE021A6000238DF827309DF827301846C3
:104A30000BB0BDE8F08F00BFC800002490AF0108A4
:104A400010B4010800000000000000000000000099
:104A500084B00190019B03F0070303930A4BDB68CA
:104A60000293029A4FF6FF0313400293039B1A022C
:104A7000029B1A43054B13430293034A029BD360E4
:104A800000BF04B0704700BF00ED00E00000FA0571
:104A900082B00346ADF80630BDF90630002B0CDBC2
:104AA000BDF8063003F01F020549BDF906305B0969
:104AB000012000FA02F241F8232000BF02B0704743
:104AC00000E100E000000000000000000000000025
:104AD00082B00346ADF80630BDF90630002B13DB7B
:104AE000BDF8063003F01F020949BDF906305B0925
:104AF000012000FA02F2203341F82320BFF34F8F48
:104B000000BFBFF36F8F00BF00BF02B0704700BF90
:104B100000E100E0000000000000000000000000D4
:104B200082B003460091ADF80630BDF90630002B87
:104B30000ADB009BDAB20C49BDF906301201D2B291
:104B40000B4483F800230BE0009BDAB20749BDF861
:104B5000063003F00F03043B1201D2B20B441A7665
:104B600000BF02B0704700BF00E100E000ED00E0D0
:104B700072B600BF704700BF0000000000000000D8
:104B800082B00190019B002B0AD0094B1B68002BBF
:104B900003D0074B1B68013B00E00023044A13606D
:104BA000034B1B68002B00D162B600BF02B07047F8
:104BB0003C4F012400000000000000000000000045
:104BC000064B1B68002B00D172B6044B1B680133E7
:104BD000024A1360014B1B68184670473C4F012482
:104BE00000B583B003468DF807309DF807301BB23F
:104BF0001846FFF74DFF00BF03B05DF804FB00BF90
:104C000000B583B003468DF807309DF807301BB21E
:104C10001846FFF75DFF00BF03B05DF804FB00BF5F
:104C200000B583B003460A468DF8073013468DF869
:104C300006309DF807301BB29DF806201146184635
:104C4000FFF76EFF00BF03B05DF804FB000000003B
:104C500008B50320FFF7FCFE00BF08BD0000000000
:104C600008B50D4B5B68002B0DD00C4B1B690B4A34
:104C700023F0010313610A4B1B68094A526811466D
:104C80000020984702E007480CF04AF9BFF34F8F25
:104C900000BF00BF08BD00BF38010024002C004247
:104CA00088010024D4A001240000000000000000BE
:104CB00008B50D4BDB68002B0DD00C4B1B690B4A64
:104CC00023F0010313610A4B9B68094AD26811461D
:104CD0000020984702E007480CF022F9BFF34F8FFD
:104CE00000BF00BF08BD00BF3801002400300042F3
:104CF0008801002430A6012400000000000000000C
:104D000008B50D4B5B69002B0DD00C4B1B690B4A92
:104D100023F0010313610A4B1B69094A52691146CA
:104D20000020984702E007480CF0FAF8BFF34F8FD5
:104D300000BF00BF08BD00BF38010024003C004098
:104D40008801002498A10124000000000000000058
:104D500008B50D4BDB69002B0DD00C4B1B690B4AC2
:104D600023F0010313610A4B9B69094AD26911467A
:104D70000020984702E007480CF0D2F8BFF34F8FAD
:104D800000BF00BF08BD00BF380100240040004242
:104D900088010024E4A301240000000000000000BA
:104DA00008B50E4B5B6A002B0FD04FF040231B69F8
:104DB0004FF0402223F001031361094B1B6A084A9C
:104DC000526A11460020984702E006480CF0A8F805
:104DD000BFF34F8F00BF00BF08BD00BF38010024E4
:104DE000880100245CA201240000000000000000F3
:104DF00008B50D4BDB6A002B0DD00C4B1B690B4A21
:104E000023F0010313610A4B9B6A094AD26A1146D7
:104E10000020984702E007480CF082F8BFF34F8F5C
:104E200000BF00BF08BD00BF38010024003C0042A5
:104E30008801002420A301240000000000000000DD
:104E400008B50D4B5B6B002B0DD00C4B1B690B4A4F
:104E500023F0010313610A4B1B6B094A526B114685
:104E60000020984702E007480CF05AF8BFF34F8F34
:104E700000BF00BF08BD00BF38010024004400424D
:104E800088010024F4A601240000000000000000B6
:104E900008B50D4BDB6B002B0DD00C4B1B690B4A7F
:104EA00023F0010313610A4B9B6B094AD26B114635
:104EB0000020984702E007480CF032F8BFF34F8F0C
:104EC00000BF00BF08BD00BF3801002400480042F9
:104ED00088010024B8A701240000000000000000A1
:104EE00008B50D4B5B6C002B0DD00C4B1B690B4AAE
:104EF00023F0010313610A4B1B6C094A526C1146E3
:104F00000020984702E007480CF00AF8BFF34F8FE3
:104F100000BF00BF08BD00BF3801002400440040AE
:104F200088010024A8A40124000000000000000063
:104F300008B50D4BDB6C002B0DD00C4B1B690B4ADD
:104F400023F0010313610A4B9B6C094AD26C114692
:104F50000020984702E007480BF0E2FFBFF34F8FB5
:104F600000BF00BF08BD00BF38010024004800405A
:104F7000880100246CA5012400000000000000004E
:104F800082B00190009100BF02B0704700000000A5
:104F900000B587B00346029101928DF80F300023CF
:104FA0008DF81730029B002B0CD1002240F26711C4
:104FB000144803F055F80346002B03D023238DF843
:104FC000173019E09DF80F30184600F079F89DF879
:104FD0000F300D49029A41F833209DF80F300A4AEC
:104FE000DB001344019A5A609DF80F30184600F018
:104FF0002FF800238DF817309DF81730184607B0AA
:105000005DF804FBC0AF0108880100240000000027
:1050100000B583B003460A468DF8073013468DF875
:1050200006309DF80730064AD35C9DF806201146ED
:105030001846FFF7F5FD00BF03B05DF804FB00BFA5
:1050400020B4010800000000000000000000000083
:1050500000B585B003468DF8073000238DF80F307A
:105060009DF80730124ADB0013445B68002B0CD11B
:1050700000224FF4CB710F4802F0F2FF0346002BE1
:1050800003D021238DF80F300CE09DF8073018462F
:1050900003F05EF99DF80730184603F061F800232D
:1050A0008DF80F309DF80F30184605B05DF804FB01
:1050B00038010024C0AF010800000000000000001B
:1050C00000B585B003468DF8073000238DF80F300A
:1050D0009DF80730104ADB0013445B68002B0CD1AD
:1050E000002240F2B5110D4802F0BAFF0346002B32
:1050F00003D021238DF80F3007E09DF807301846C4
:1051000003F076F800238DF80F309DF80F30184625
:1051100005B05DF804FB00BF38010024C0AF0108F2
:1051200000B587B002910192009303468DF80F30CD
:1051300000238DF817309DF80F300221184602F039
:105140009FFF0346002B0CD0002240F2F5114F4880
:1051500002F086FF0346002B03D024238DF817307E
:105160008EE09DF80F304A4ADB0013445B68002B49
:105170000CD000224FF4FF71444802F071FF034647
:10518000002B03D020238DF8173079E0029B002BF1
:105190000CD1002240F205213C4802F061FF034699
:1051A000002B03D022238DF8173069E09DF80F30D3
:1051B000184602F0BDFF029BDB0BADF81430BDF8C2
:1051C000143001331A46029BB3FBF2F3ADF81230F0
:1051D0009DF80F302E4A52F833301B68BDF814206A
:1051E0009A629DF80F302A4A52F833301B68BDF896
:1051F0001220DA629DF80F30254ADB001344029A30
:105200005A60BDF81430591C9DF80F30204A52F8EE
:1052100033300A469A609DF80F301D4A52F83330F9
:105220004FF6FF72DA609DF80F30194A52F83320BA
:10523000137C43F0300313749DF80F30144A52F876
:1052400033301B680122DA609DF80F30104A52F8A3
:1052500033301B6800225A629DF80F300D4AD35C30
:105260001846FFF7BDFC9DF80F30009A01991846CB
:10527000FFF78EFE03468DF8173000238DF81730A8
:105280009DF81730184607B05DF804FBC0AF010861
:105290003801002420B401080000000000000000D4
:1052A00000B585B002910192009303468DF80F304E
:1052B0009DF80F300A4A52F833305B68094AA2FB66
:1052C00003239B09029A02FB03F19DF80F00009B48
:1052D000019AFFF725FF0346184605B05DF804FB69
:1052E00038010024D34D62100000000000000000CF
:1052F00000B585B00190009101238DF80F30019B1E
:105300001B0CDBB203F00F038DF80B30019B1B0D60
:10531000DBB203F00F038DF80A309DF80B209DF8E7
:105320000A1059481346DB009B1A5B000B445B00D4
:1053300003449B8840F6FF7293420BD10022532115
:10534000524802F08DFE0346002B03D023238DF834
:105350000F3092E0009B42F2107293420BD9002270
:105360005B214A4802F07CFE0346002B03D0292330
:105370008DF80F3081E09DF80B2043491346DB0088
:105380009B1A9B000B441B68DB68ADF80830BDF826
:10539000083007EE903AB8EEE77A009B07EE903AB5
:1053A000F8EE676A9FED3A6AC6EE867A67EE277A6C
:1053B000FCEEE77A17EE903AADF80C30BDF80C2011
:1053C000BDF808309A4204D1BDF80C300133ADF875
:1053D0000C30019B1B0D03F00F03072B4AD801A2D1
:1053E00052F823F005540008215400083D540008E9
:1053F0005954000805540008215400083D54000881
:10540000595400089DF80B201F491346DB009B1AD6
:105410009B000B441B681B68BDF80C205A6329E0F5
:105420009DF80B2018491346DB009B1A9B000B4488
:105430001B681B68BDF80C209A631BE09DF80B20CD
:1054400011491346DB009B1A9B000B441B681B6829
:10545000BDF80C20DA630DE09DF80B200A491346D5
:10546000DB009B1A9B000B441B681B68BDF80C20DB
:105470001A6400BF00238DF80F309DF80F301846D6
:1054800005B05DF804FB00BFD8010024F0AF0108AF
:1054900000401C460000000000000000000000006A
:1054A00010B586B00190009101238DF81730019B53
:1054B0001B0CDBB203F00F038DF80F30019B1B0DAB
:1054C000DBB203F00F038DF80E309DF80F20A849D2
:1054D0001346DB009B1A9B000B4414331B68002B04
:1054E0000CD1002240F2E711A24802F0B9FD0346B8
:1054F000002B03D021238DF8173034E19DF80F20C5
:105500009B491346DB009B1A9B000B4418331B7806
:105510001A469DF80E3042FA03F303F00103002B04
:105520000BD0002240F2EF11924802F099FD0346A1
:10553000002B02D022238DF81730009B42F210720C
:1055400093420CD900224FF4FB718A4802F088FD87
:105550000346002B03D029238DF8173003E10023E5
:1055600004939DF80E3003F00203DBB2002B0CD045
:105570009DF80F207E491346DB009B1A9B000B44CD
:105580001B681B68DB6904930BE09DF80F207849CA
:105590001346DB009B1A9B000B441B681B689B692E
:1055A00004939DF80E3003F00103DB00032202FA9E
:1055B00003F3DB43049A134004939DF80E3003F089
:1055C0000103DB00602202FA03F3049A13430493FD
:1055D0009DF80E3003F00103DB00082202FA03F30A
:1055E000049A134304939DF80E3003F00103DB008B
:1055F000802202FA03F3049A134304939DF80E30B9
:1056000003F00203DBB2002B0CD09DF80F205849A9
:105610001346DB009B1A9B000B441B681B68049A13
:10562000DA610BE09DF80F2051491346DB009B1A0D
:105630009B000B441B681B68049A9A619DF80F201D
:105640004B491346DB009B1A9B000B441B681B68ED
:105650001B6A04939DF80E3003F003035B009DF872
:105660000E209208D2B213445B00012202FA03F327
:10567000049A134304939DF80F203D491346DB0021
:105680009B1A9B000B441B681B68049A1A629DF8C6
:105690000F30012B02DC002B03DA1BE0063B012B51
:1056A00018D89DF80F2032491346DB009B1A9B0047
:1056B0000B441B681B68596C9DF80F202C4813463F
:1056C000DB009B1A9B0003441B681B6841F40042EB
:1056D0005A6400E000BF9DF80F2025491346DB0007
:1056E0009B1A9B000B4418331B785AB29DF80E305E
:1056F000012101FA03F35BB213435BB29DF80F2063
:10570000D8B21B491346DB009B1A9B000B4418338D
:1057100002461A70019B9BB29DF80F209DF80E1057
:10572000C3F30B039CB212481346DB009B1A5B00C9
:105730000B445B00034422469A8000990198FFF7CE
:10574000D7FD019B9BB2C3F30B0398B2019B1B0BCC
:10575000DBB203F00F03DBB21A461221FEF7F8FBAF
:1057600000238DF817309DF81730184606B010BD8D
:10577000D8010024F0AF0108000000000000000084
:1057800000B587B0034600928DF807300B468DF8C0
:10579000063001238DF817309DF807300321184695
:1057A00002F06EFC0346002B0CD0002240F23321A5
:1057B0009E4802F055FC0346002B03D02A238DF8A7
:1057C00017302CE19DF8072099491346DB009B1AFE
:1057D0009B000B4414331B68002B0CD000224FF4A9
:1057E0000F71924802F03CFC0346002B03D02023AB
:1057F0008DF8173013E1009B002B0CD1002240F2F2
:1058000043218A4802F02CFC0346002B03D02923B5
:105810008DF8173003E19DF80630002B02D0009B75
:105820005B0000E0009B04939DF80720804913462D
:10583000DB009B1A9B000B441B685A68049BB2FB5D
:10584000F3F3DB0BADF80E309DF8072078491346D3
:10585000DB009B1A9B000B441B685A68049BB2FB3D
:10586000F3F3BDF80E200132B3FBF2F3ADF80C30C8
:105870009DF80730184602F05BFC9DF807206C4944
:105880001346DB009B1A9B000B4403F1180253786C
:1058900043F0010353709DF807209DF8073003F093
:1058A0003F03D9B262481346DB009B1A9B000344B6
:1058B00003F11802537861F3870353709DF80720B2
:1058C0009DF8063003F00103D9B259481346DB00B6
:1058D0009B1A9B00034403F11802537861F34103C0
:1058E00053709DF8072052491346DB009B1A9B001A
:1058F0000B441B685B68BDF80E200132B3FBF2F16C
:10590000BDF80C309DF80720B1FBF3F14848134671
:10591000DB009B1A9B00034414331960BDF80E3062
:10592000581C9DF8072042491346DB009B1A9B0038
:105930000B441B6802469A60BDF80C30581E9DF857
:1059400007203B491346DB009B1A9B000B441B6856
:105950000246DA609DF8072035491346DB009B1AA2
:105960009B000B441A68137C43F03003137400232C
:1059700002939DF807202E491346DB009B1A9B00DB
:105980000B441B681B681B680293029B23F0600397
:1059900002939DF80630002B01D0602300E0002325
:1059A000029A134302939DF8072021491346DB0016
:1059B0009B1A9B000B441B681B68029A1A609DF897
:1059C00007201B491346DB009B1A9B000B441B68F6
:1059D0001B68BDF80E209A62BDF80C30581E9DF869
:1059E000072013491346DB009B1A9B000B441B68DE
:1059F0001B680246DA629DF807200D491346DB005A
:105A00009B1A9B000B441B681B6800225A629DF87E
:105A10000730184602F0A4FB00238DF817309DF8DC
:105A20001730184607B05DF804FB00BFF0AF01085F
:105A3000D801002400000000000000000000000069
:105A400082B00346ADF80630BDF8063003F00F0310
:105A50001A4A52F823301A68BDF806301B099BB267
:105A600003F01F03012101FA03F31846BDF80630C5
:105A700003F00F03114951F8233002431A60BDF8B7
:105A8000063003F00F030D4A52F823301A68BDF8B0
:105A900006301B099BB203F01F03012101FA03F337
:105AA000DB431846BDF8063003F00F03034951F8F5
:105AB000233002401A6000BF02B0704730B40108C2
:105AC00082B00346ADF80630BDF8063003F00F0390
:105AD0000D4A52F823301A68BDF806301B099BB2F4
:105AE00003F01F03012101FA03F3DB431846BDF85D
:105AF000063003F00F03044951F8233002401A60C6
:105B000000BF02B0704700BF50B4010800000000A1
